{
  "contractName": "Dice",
  "abi": [
    {
      "constant": false,
      "inputs": [],
      "name": "divest",
      "outputs": [],
      "payable": false,
      "type": "function"
    },
    {
      "constant": true,
      "inputs": [
        {
          "name": "id",
          "type": "uint256"
        }
      ],
      "name": "getBet",
      "outputs": [
        {
          "name": "",
          "type": "address"
        },
        {
          "name": "",
          "type": "uint256"
        },
        {
          "name": "",
          "type": "uint256"
        }
      ],
      "payable": false,
      "type": "function"
    },
    {
      "constant": true,
      "inputs": [],
      "name": "getBankroll",
      "outputs": [
        {
          "name": "",
          "type": "uint256"
        }
      ],
      "payable": false,
      "type": "function"
    },
    {
      "constant": false,
      "inputs": [],
      "name": "bet",
      "outputs": [],
      "payable": false,
      "type": "function"
    },
    {
      "constant": true,
      "inputs": [
        {
          "name": "currentInvestor",
          "type": "address"
        }
      ],
      "name": "getProfitShare",
      "outputs": [
        {
          "name": "",
          "type": "uint256"
        }
      ],
      "payable": false,
      "type": "function"
    },
    {
      "constant": false,
      "inputs": [],
      "name": "stopContract",
      "outputs": [],
      "payable": false,
      "type": "function"
    },
    {
      "constant": true,
      "inputs": [],
      "name": "numInvestors",
      "outputs": [
        {
          "name": "",
          "type": "uint256"
        }
      ],
      "payable": false,
      "type": "function"
    },
    {
      "constant": true,
      "inputs": [],
      "name": "maxWin",
      "outputs": [
        {
          "name": "",
          "type": "uint256"
        }
      ],
      "payable": false,
      "type": "function"
    },
    {
      "constant": true,
      "inputs": [],
      "name": "emergencyWithdrawalRatio",
      "outputs": [
        {
          "name": "",
          "type": "uint256"
        }
      ],
      "payable": false,
      "type": "function"
    },
    {
      "constant": false,
      "inputs": [
        {
          "name": "vote",
          "type": "bool"
        }
      ],
      "name": "voteEmergencyWithdrawal",
      "outputs": [],
      "payable": false,
      "type": "function"
    },
    {
      "constant": false,
      "inputs": [
        {
          "name": "newHouse",
          "type": "address"
        }
      ],
      "name": "changeHouseAddress",
      "outputs": [],
      "payable": false,
      "type": "function"
    },
    {
      "constant": false,
      "inputs": [],
      "name": "forceDivestOfAllInvestors",
      "outputs": [],
      "payable": false,
      "type": "function"
    },
    {
      "constant": false,
      "inputs": [
        {
          "name": "myid",
          "type": "bytes32"
        },
        {
          "name": "result",
          "type": "string"
        }
      ],
      "name": "__callback",
      "outputs": [],
      "payable": false,
      "type": "function"
    },
    {
      "constant": true,
      "inputs": [],
      "name": "investorsLoses",
      "outputs": [
        {
          "name": "",
          "type": "uint256"
        }
      ],
      "payable": false,
      "type": "function"
    },
    {
      "constant": false,
      "inputs": [
        {
          "name": "myid",
          "type": "bytes32"
        },
        {
          "name": "result",
          "type": "string"
        },
        {
          "name": "proof",
          "type": "bytes"
        }
      ],
      "name": "__callback",
      "outputs": [],
      "payable": false,
      "type": "function"
    },
    {
      "constant": true,
      "inputs": [],
      "name": "isStopped",
      "outputs": [
        {
          "name": "",
          "type": "bool"
        }
      ],
      "payable": false,
      "type": "function"
    },
    {
      "constant": true,
      "inputs": [
        {
          "name": "",
          "type": "uint256"
        }
      ],
      "name": "investors",
      "outputs": [
        {
          "name": "investorAddress",
          "type": "address"
        },
        {
          "name": "amountInvested",
          "type": "uint256"
        },
        {
          "name": "votedForEmergencyWithdrawal",
          "type": "bool"
        }
      ],
      "payable": false,
      "type": "function"
    },
    {
      "constant": true,
      "inputs": [],
      "name": "searchSmallestInvestor",
      "outputs": [
        {
          "name": "",
          "type": "uint256"
        }
      ],
      "payable": false,
      "type": "function"
    },
    {
      "constant": false,
      "inputs": [
        {
          "name": "withdrawalAddress",
          "type": "address"
        }
      ],
      "name": "proposeEmergencyWithdrawal",
      "outputs": [],
      "payable": false,
      "type": "function"
    },
    {
      "constant": true,
      "inputs": [],
      "name": "divestFee",
      "outputs": [
        {
          "name": "",
          "type": "uint256"
        }
      ],
      "payable": false,
      "type": "function"
    },
    {
      "constant": true,
      "inputs": [],
      "name": "getStatus",
      "outputs": [
        {
          "name": "",
          "type": "uint256"
        },
        {
          "name": "",
          "type": "uint256"
        },
        {
          "name": "",
          "type": "uint256"
        },
        {
          "name": "",
          "type": "uint256"
        },
        {
          "name": "",
          "type": "uint256"
        },
        {
          "name": "",
          "type": "uint256"
        },
        {
          "name": "",
          "type": "uint256"
        },
        {
          "name": "",
          "type": "uint256"
        },
        {
          "name": "",
          "type": "uint256"
        }
      ],
      "payable": false,
      "type": "function"
    },
    {
      "constant": false,
      "inputs": [
        {
          "name": "currentInvestor",
          "type": "address"
        }
      ],
      "name": "forceDivestOfOneInvestor",
      "outputs": [],
      "payable": false,
      "type": "function"
    },
    {
      "constant": true,
      "inputs": [],
      "name": "proposedWithdrawal",
      "outputs": [
        {
          "name": "toAddress",
          "type": "address"
        },
        {
          "name": "atTime",
          "type": "uint256"
        }
      ],
      "payable": false,
      "type": "function"
    },
    {
      "constant": true,
      "inputs": [],
      "name": "getMaxBetAmount",
      "outputs": [
        {
          "name": "",
          "type": "uint256"
        }
      ],
      "payable": false,
      "type": "function"
    },
    {
      "constant": true,
      "inputs": [],
      "name": "investorsProfit",
      "outputs": [
        {
          "name": "",
          "type": "uint256"
        }
      ],
      "payable": false,
      "type": "function"
    },
    {
      "constant": true,
      "inputs": [
        {
          "name": "",
          "type": "address"
        }
      ],
      "name": "investorIDs",
      "outputs": [
        {
          "name": "",
          "type": "uint256"
        }
      ],
      "payable": false,
      "type": "function"
    },
    {
      "constant": true,
      "inputs": [],
      "name": "getMinInvestment",
      "outputs": [
        {
          "name": "",
          "type": "uint256"
        }
      ],
      "payable": false,
      "type": "function"
    },
    {
      "constant": true,
      "inputs": [],
      "name": "getMinBetAmount",
      "outputs": [
        {
          "name": "",
          "type": "uint256"
        }
      ],
      "payable": false,
      "type": "function"
    },
    {
      "constant": false,
      "inputs": [
        {
          "name": "newOwner",
          "type": "address"
        }
      ],
      "name": "changeOwnerAddress",
      "outputs": [],
      "payable": false,
      "type": "function"
    },
    {
      "constant": true,
      "inputs": [],
      "name": "minBet",
      "outputs": [
        {
          "name": "",
          "type": "uint256"
        }
      ],
      "payable": false,
      "type": "function"
    },
    {
      "constant": false,
      "inputs": [],
      "name": "increaseInvestment",
      "outputs": [],
      "payable": false,
      "type": "function"
    },
    {
      "constant": true,
      "inputs": [],
      "name": "pwin",
      "outputs": [
        {
          "name": "",
          "type": "uint256"
        }
      ],
      "payable": false,
      "type": "function"
    },
    {
      "constant": true,
      "inputs": [],
      "name": "edge",
      "outputs": [
        {
          "name": "",
          "type": "uint256"
        }
      ],
      "payable": false,
      "type": "function"
    },
    {
      "constant": true,
      "inputs": [],
      "name": "maxInvestors",
      "outputs": [
        {
          "name": "",
          "type": "uint256"
        }
      ],
      "payable": false,
      "type": "function"
    },
    {
      "constant": false,
      "inputs": [],
      "name": "resumeContract",
      "outputs": [],
      "payable": false,
      "type": "function"
    },
    {
      "constant": true,
      "inputs": [],
      "name": "invested",
      "outputs": [
        {
          "name": "",
          "type": "uint256"
        }
      ],
      "payable": false,
      "type": "function"
    },
    {
      "constant": false,
      "inputs": [
        {
          "name": "newGasLimit",
          "type": "uint256"
        }
      ],
      "name": "changeGasLimitOfSafeSend",
      "outputs": [],
      "payable": false,
      "type": "function"
    },
    {
      "constant": true,
      "inputs": [],
      "name": "amountWagered",
      "outputs": [
        {
          "name": "",
          "type": "uint256"
        }
      ],
      "payable": false,
      "type": "function"
    },
    {
      "constant": true,
      "inputs": [],
      "name": "houseEdge",
      "outputs": [
        {
          "name": "",
          "type": "uint256"
        }
      ],
      "payable": false,
      "type": "function"
    },
    {
      "constant": true,
      "inputs": [],
      "name": "numBets",
      "outputs": [
        {
          "name": "",
          "type": "uint256"
        }
      ],
      "payable": false,
      "type": "function"
    },
    {
      "constant": true,
      "inputs": [
        {
          "name": "currentInvestor",
          "type": "address"
        }
      ],
      "name": "getLosesShare",
      "outputs": [
        {
          "name": "",
          "type": "uint256"
        }
      ],
      "payable": false,
      "type": "function"
    },
    {
      "constant": false,
      "inputs": [],
      "name": "executeEmergencyWithdrawal",
      "outputs": [],
      "payable": false,
      "type": "function"
    },
    {
      "constant": true,
      "inputs": [
        {
          "name": "currentInvestor",
          "type": "address"
        }
      ],
      "name": "getBalance",
      "outputs": [
        {
          "name": "",
          "type": "uint256"
        }
      ],
      "payable": false,
      "type": "function"
    },
    {
      "constant": false,
      "inputs": [],
      "name": "newInvestor",
      "outputs": [],
      "payable": true,
      "type": "function"
    },
    {
      "inputs": [
        {
          "name": "pwinInitial",
          "type": "uint256"
        },
        {
          "name": "edgeInitial",
          "type": "uint256"
        },
        {
          "name": "maxWinInitial",
          "type": "uint256"
        },
        {
          "name": "minBetInitial",
          "type": "uint256"
        },
        {
          "name": "maxInvestorsInitial",
          "type": "uint256"
        },
        {
          "name": "houseEdgeInitial",
          "type": "uint256"
        },
        {
          "name": "divestFeeInitial",
          "type": "uint256"
        },
        {
          "name": "emergencyWithdrawalRatioInitial",
          "type": "uint256"
        }
      ],
      "payable": false,
      "type": "constructor"
    },
    {
      "payable": false,
      "type": "fallback"
    },
    {
      "anonymous": false,
      "inputs": [
        {
          "indexed": false,
          "name": "playerAddress",
          "type": "address"
        },
        {
          "indexed": false,
          "name": "numberRolled",
          "type": "uint256"
        },
        {
          "indexed": false,
          "name": "amountWon",
          "type": "uint256"
        }
      ],
      "name": "BetWon",
      "type": "event"
    },
    {
      "anonymous": false,
      "inputs": [
        {
          "indexed": false,
          "name": "playerAddress",
          "type": "address"
        },
        {
          "indexed": false,
          "name": "numberRolled",
          "type": "uint256"
        }
      ],
      "name": "BetLost",
      "type": "event"
    },
    {
      "anonymous": false,
      "inputs": [],
      "name": "EmergencyWithdrawalProposed",
      "type": "event"
    },
    {
      "anonymous": false,
      "inputs": [
        {
          "indexed": false,
          "name": "withdrawalAddress",
          "type": "address"
        }
      ],
      "name": "EmergencyWithdrawalFailed",
      "type": "event"
    },
    {
      "anonymous": false,
      "inputs": [
        {
          "indexed": false,
          "name": "withdrawalAddress",
          "type": "address"
        },
        {
          "indexed": false,
          "name": "amountWithdrawn",
          "type": "uint256"
        }
      ],
      "name": "EmergencyWithdrawalSucceeded",
      "type": "event"
    },
    {
      "anonymous": false,
      "inputs": [
        {
          "indexed": false,
          "name": "receiver",
          "type": "address"
        },
        {
          "indexed": false,
          "name": "amount",
          "type": "uint256"
        }
      ],
      "name": "FailedSend",
      "type": "event"
    },
    {
      "anonymous": false,
      "inputs": [],
      "name": "ValueIsTooBig",
      "type": "event"
    }
  ],
  "bytecode": "0x606060405261138860055560c8600655606460075566038d7ea4c6800060085560056009556032600a556032600b55605a600c556161a8600d5560006010556000601155600060185560006019556000601a5534156200005b57fe5b6040516101008062005331833981016040528080519060200190919080519060200190919080519060200190919080519060200190919080519060200190919080519060200190919080519060200190919080519060200190919050505b736f485c8bf6fc43ea212e93bbf8ce046c7f1cb475600060006101000a81548173ffffffffffffffffffffffffffffffffffffffff021916908373ffffffffffffffffffffffffffffffffffffffff1602179055506200017560017f01000000000000000000000000000000000000000000000000000000000000000260107f010000000000000000000000000000000000000000000000000000000000000002176200023e6401000000000262004249176401000000009004565b876005819055508660068190555085600781905550846008819055508360098190555082600a8190555081600b8190555080600c8190555033601260006101000a81548173ffffffffffffffffffffffffffffffffffffffff021916908373ffffffffffffffffffffffffffffffffffffffff16021790555033601360006101000a81548173ffffffffffffffffffffffffffffffffffffffff021916908373ffffffffffffffffffffffffffffffffffffffff1602179055505b505050505050505062000c34565b6000600060009054906101000a900473ffffffffffffffffffffffffffffffffffffffff1673ffffffffffffffffffffffffffffffffffffffff161480620002c657506000620002c4600060009054906101000a900473ffffffffffffffffffffffffffffffffffffffff16620005bf640100000000026200397d176401000000009004565b145b15620002ee57620002ec6000620005cb6401000000000262003989176401000000009004565b505b600060009054906101000a900473ffffffffffffffffffffffffffffffffffffffff1673ffffffffffffffffffffffffffffffffffffffff166338cc48316000604051602001526040518163ffffffff167c0100000000000000000000000000000000000000000000000000000000028152600401809050602060405180830381600087803b15156200037d57fe5b6102c65a03f115156200038c57fe5b5050506040518051905073ffffffffffffffffffffffffffffffffffffffff16600160009054906101000a900473ffffffffffffffffffffffffffffffffffffffff1673ffffffffffffffffffffffffffffffffffffffff16141515620004d657600060009054906101000a900473ffffffffffffffffffffffffffffffffffffffff1673ffffffffffffffffffffffffffffffffffffffff166338cc48316000604051602001526040518163ffffffff167c0100000000000000000000000000000000000000000000000000000000028152600401809050602060405180830381600087803b15156200047c57fe5b6102c65a03f115156200048b57fe5b50505060405180519050600160006101000a81548173ffffffffffffffffffffffffffffffffffffffff021916908373ffffffffffffffffffffffffffffffffffffffff1602179055505b600160009054906101000a900473ffffffffffffffffffffffffffffffffffffffff1673ffffffffffffffffffffffffffffffffffffffff1663688dcfd7826040518263ffffffff167c010000000000000000000000000000000000000000000000000000000002815260040180827effffffffffffffffffffffffffffffffffffffffffffffffffffffffffffff19167effffffffffffffffffffffffffffffffffffffffffffffffffffffffffffff19168152602001915050600060405180830381600087803b1515620005a857fe5b6102c65a03f11515620005b757fe5b5050505b5b50565b6000813b90505b919050565b6000600062000602731d3b2638a7cc9f2cb3d298a3da7a90b67e5506ed620005bf640100000000026200397d176401000000009004565b1115620006bd57731d3b2638a7cc9f2cb3d298a3da7a90b67e5506ed600060006101000a81548173ffffffffffffffffffffffffffffffffffffffff021916908373ffffffffffffffffffffffffffffffffffffffff160217905550620006b3604060405190810160405280600b81526020017f6574685f6d61696e6e657400000000000000000000000000000000000000000081525062000b686401000000000262004124176401000000009004565b6001905062000b63565b6000620006f273c03a2615d5efaf5f49f60b7bb6583eaec212fdf1620005bf640100000000026200397d176401000000009004565b1115620007ad5773c03a2615d5efaf5f49f60b7bb6583eaec212fdf1600060006101000a81548173ffffffffffffffffffffffffffffffffffffffff021916908373ffffffffffffffffffffffffffffffffffffffff160217905550620007a3604060405190810160405280600c81526020017f6574685f726f707374656e33000000000000000000000000000000000000000081525062000b686401000000000262004124176401000000009004565b6001905062000b63565b6000620007e273b7a07bcf2ba2f2703b24c0691b5278999c59ac7e620005bf640100000000026200397d176401000000009004565b11156200089d5773b7a07bcf2ba2f2703b24c0691b5278999c59ac7e600060006101000a81548173ffffffffffffffffffffffffffffffffffffffff021916908373ffffffffffffffffffffffffffffffffffffffff16021790555062000893604060405190810160405280600981526020017f6574685f6b6f76616e000000000000000000000000000000000000000000000081525062000b686401000000000262004124176401000000009004565b6001905062000b63565b6000620008d273146500cfd35b22e4a392fe0adc06de1a1368ed48620005bf640100000000026200397d176401000000009004565b11156200098d5773146500cfd35b22e4a392fe0adc06de1a1368ed48600060006101000a81548173ffffffffffffffffffffffffffffffffffffffff021916908373ffffffffffffffffffffffffffffffffffffffff16021790555062000983604060405190810160405280600b81526020017f6574685f72696e6b65627900000000000000000000000000000000000000000081525062000b686401000000000262004124176401000000009004565b6001905062000b63565b6000620009c2736f485c8bf6fc43ea212e93bbf8ce046c7f1cb475620005bf640100000000026200397d176401000000009004565b111562000a2857736f485c8bf6fc43ea212e93bbf8ce046c7f1cb475600060006101000a81548173ffffffffffffffffffffffffffffffffffffffff021916908373ffffffffffffffffffffffffffffffffffffffff1602179055506001905062000b63565b600062000a5d7320e12a1f859b3feae5fb2a0a32c18f5a65555bbf620005bf640100000000026200397d176401000000009004565b111562000ac3577320e12a1f859b3feae5fb2a0a32c18f5a65555bbf600060006101000a81548173ffffffffffffffffffffffffffffffffffffffff021916908373ffffffffffffffffffffffffffffffffffffffff1602179055506001905062000b63565b600062000af87351efaf4c8b3c9afbd5ab9f4bbc82784ab6ef8faa620005bf640100000000026200397d176401000000009004565b111562000b5e577351efaf4c8b3c9afbd5ab9f4bbc82784ab6ef8faa600060006101000a81548173ffffffffffffffffffffffffffffffffffffffff021916908373ffffffffffffffffffffffffffffffffffffffff1602179055506001905062000b63565b600090505b919050565b806002908051906020019062000b8092919062000b85565b505b50565b828054600181600116156101000203166002900490600052602060002090601f016020900481019282601f1062000bc857805160ff191683800117855562000bf9565b8280016001018555821562000bf9579182015b8281111562000bf857825182559160200191906001019062000bdb565b5b50905062000c08919062000c0c565b5090565b62000c3191905b8082111562000c2d57600081600090555060010162000c13565b5090565b90565b6146ed8062000c446000396000f30060606040523615610218576000357c0100000000000000000000000000000000000000000000000000000000900463ffffffff168063058aace114610231578063061e494f146102435780630d1fce42146102b157806311610c25146102d7578063116c6eab146102e957806312253a6c14610333578063132ae5e91461034557806316d190e31461036b57806317c5fed814610391578063187a62d5146103b75780631efb17ee146103d9578063232523e81461040f57806327dc297e14610421578063333e1a721461048857806338bbfa50146104ae5780633f683b6a146105585780633feb5f2b1461058257806340a49a96146105f45780634671e65e1461061a5780634dc6b523146106505780634e69d5601461067657806351404cbe146106d4578063518496b21461070a578063550ed1f01461076357806366aee0fc146107895780636be80de7146107af578063724ae9d0146107f957806382a5285d1461081f57806385eac05f146108455780639619367d1461087b578063a4beffa7146108a1578063a96a5a5b146108b3578063adc2c98a146108d9578063bc99cc37146108ff578063c4bc5da514610925578063cafb220214610937578063d21d79501461095d578063d4c80edf1461097d578063d667dcd7146109a3578063df06f906146109c9578063e0e3ba5a146109ef578063f4993bbd14610a39578063f8b2cb4f14610a4b578063fb099c8414610a95575b341561022057fe5b61022f5b61022c610a9f565b5b565b005b341561023957fe5b610241610e67565b005b341561024b57fe5b6102616004808035906020019091905050610ed3565b604051808473ffffffffffffffffffffffffffffffffffffffff1673ffffffffffffffffffffffffffffffffffffffff168152602001838152602001828152602001935050505060405180910390f35b34156102b957fe5b6102c1610f9a565b6040518082815260200191505060405180910390f35b34156102df57fe5b6102e7610a9f565b005b34156102f157fe5b61031d600480803573ffffffffffffffffffffffffffffffffffffffff16906020019091905050610fad565b6040518082815260200191505060405180910390f35b341561033b57fe5b61034361101e565b005b341561034d57fe5b6103556110ab565b6040518082815260200191505060405180910390f35b341561037357fe5b61037b6110b1565b6040518082815260200191505060405180910390f35b341561039957fe5b6103a16110b7565b6040518082815260200191505060405180910390f35b34156103bf57fe5b6103d7600480803515159060200190919050506110bd565b005b34156103e157fe5b61040d600480803573ffffffffffffffffffffffffffffffffffffffff169060200190919050506111f6565b005b341561041757fe5b61041f6112aa565b005b341561042957fe5b61048660048080356000191690602001909190803590602001908201803590602001908080601f01602080910402602001604051908101604052809392919081815260200183838082843782019150505050505091905050611383565b005b341561049057fe5b6104986113b3565b6040518082815260200191505060405180910390f35b34156104b657fe5b61055660048080356000191690602001909190803590602001908201803590602001908080601f0160208091040260200160405190810160405280939291908181526020018383808284378201915050505050509190803590602001908201803590602001908080601f016020809104026020016040519081016040528093929190818152602001838380828437820191505050505050919050506113b9565b005b341561056057fe5b610568611727565b604051808215151515815260200191505060405180910390f35b341561058a57fe5b6105a0600480803590602001909190505061173a565b604051808473ffffffffffffffffffffffffffffffffffffffff1673ffffffffffffffffffffffffffffffffffffffff16815260200183815260200182151515158152602001935050505060405180910390f35b34156105fc57fe5b610604611791565b6040518082815260200191505060405180910390f35b341561062257fe5b61064e600480803573ffffffffffffffffffffffffffffffffffffffff1690602001909190505061184a565b005b341561065857fe5b6106606119d2565b6040518082815260200191505060405180910390f35b341561067e57fe5b6106866119d8565b604051808a8152602001898152602001888152602001878152602001868152602001858152602001848152602001838152602001828152602001995050505050505050505060405180910390f35b34156106dc57fe5b610708600480803573ffffffffffffffffffffffffffffffffffffffff16906020019091905050611a40565b005b341561071257fe5b61071a611b0e565b604051808373ffffffffffffffffffffffffffffffffffffffff1673ffffffffffffffffffffffffffffffffffffffff1681526020018281526020019250505060405180910390f35b341561076b57fe5b610773611b40565b6040518082815260200191505060405180910390f35b341561079157fe5b610799611cef565b6040518082815260200191505060405180910390f35b34156107b757fe5b6107e3600480803573ffffffffffffffffffffffffffffffffffffffff16906020019091905050611cf5565b6040518082815260200191505060405180910390f35b341561080157fe5b610809611d0d565b6040518082815260200191505060405180910390f35b341561082757fe5b61082f611d7b565b6040518082815260200191505060405180910390f35b341561084d57fe5b610879600480803573ffffffffffffffffffffffffffffffffffffffff16906020019091905050611efe565b005b341561088357fe5b61088b611fb2565b6040518082815260200191505060405180910390f35b34156108a957fe5b6108b1611fb8565b005b34156108bb57fe5b6108c36120b1565b6040518082815260200191505060405180910390f35b34156108e157fe5b6108e96120b7565b6040518082815260200191505060405180910390f35b341561090757fe5b61090f6120bd565b6040518082815260200191505060405180910390f35b341561092d57fe5b6109356120c3565b005b341561093f57fe5b610947612150565b6040518082815260200191505060405180910390f35b341561096557fe5b61097b6004808035906020019091905050612156565b005b341561098557fe5b61098d6121e3565b6040518082815260200191505060405180910390f35b34156109ab57fe5b6109b36121e9565b6040518082815260200191505060405180910390f35b34156109d157fe5b6109d96121ef565b6040518082815260200191505060405180910390f35b34156109f757fe5b610a23600480803573ffffffffffffffffffffffffffffffffffffffff169060200190919050506121fd565b6040518082815260200191505060405180910390f35b3415610a4157fe5b610a4961226e565b005b3415610a5357fe5b610a7f600480803573ffffffffffffffffffffffffffffffffffffffff169060200190919050506125bf565b6040518082815260200191505060405180910390f35b610a9d612633565b005b600060006000601360149054906101000a900460ff1615610ac05760006000fd5b6000341415610acf5760006000fd5b600060009054906101000a900473ffffffffffffffffffffffffffffffffffffffff1673ffffffffffffffffffffffffffffffffffffffff166338cc48316000604051602001526040518163ffffffff167c0100000000000000000000000000000000000000000000000000000000028152600401809050602060405180830381600087803b1515610b5d57fe5b6102c65a03f11515610b6b57fe5b5050506040518051905073ffffffffffffffffffffffffffffffffffffffff16632ef3accc600d546201e848016000604051602001526040518263ffffffff167c01000000000000000000000000000000000000000000000000000000000281526004018080602001838152602001828103825260038152602001807f55524c000000000000000000000000000000000000000000000000000000000081525060200192505050602060405180830381600087803b1515610c2857fe5b6102c65a03f11515610c3657fe5b5050506040518051905092508234039150612710610c52610f9a565b60075402811515610c5f57fe5b0460055460055460065461271003038402811515610c7957fe5b0411158015610c8a57506008548210155b15610e5957610d76604060405190810160405280600381526020017f55524c0000000000000000000000000000000000000000000000000000000000815250608060405190810160405280604381526020017f6a736f6e2868747470733a2f2f6170692e72616e646f6d2e6f72672f6a736f6e81526020017f2d7270632f312f696e766f6b65292e726573756c742e72616e646f6d2e64617481526020017f612e3000000000000000000000000000000000000000000000000000000000008152506101606040519081016040528061012c815260200161459661012c9139600d546201e84801612747565b90506060604051908101604052803373ffffffffffffffffffffffffffffffffffffffff168152602001838152602001600081525060166000836000191660001916815260200190815260200160002060008201518160000160006101000a81548173ffffffffffffffffffffffffffffffffffffffff021916908373ffffffffffffffffffffffffffffffffffffffff160217905550602082015181600101556040820151816002015590505060178054806001018281610e38919061413f565b916000526020600020900160005b8390919091509060001916905550610e5f565b60006000fd5b5b5b5b505050565b6000600e60003373ffffffffffffffffffffffffffffffffffffffff1673ffffffffffffffffffffffffffffffffffffffff168152602001908152602001600020541415610eb55760006000fd5b600034141515610ec55760006000fd5b610ece33612d31565b5b5b5b565b6000600060006000601780549050851015610f9157601785815481101515610ef757fe5b906000526020600020900160005b5054905060166000826000191660001916815260200190815260200160002060000160009054906101000a900473ffffffffffffffffffffffffffffffffffffffff166016600083600019166000191681526020019081526020016000206001015460166000846000191660001916815260200190815260200160002060020154935093509350610f92565b5b509193909250565b6000601a54601954601154010390505b90565b6000601154601954600f6000600e60008773ffffffffffffffffffffffffffffffffffffffff1673ffffffffffffffffffffffffffffffffffffffff168152602001908152602001600020548152602001908152602001600020600101540281151561101557fe5b0490505b919050565b3373ffffffffffffffffffffffffffffffffffffffff16601260009054906101000a900473ffffffffffffffffffffffffffffffffffffffff1673ffffffffffffffffffffffffffffffffffffffff1614151561107b5760006000fd5b60003414151561108b5760006000fd5b6001601360146101000a81548160ff0219169083151502179055505b5b5b565b60105481565b60075481565b600c5481565b6000600e60003373ffffffffffffffffffffffffffffffffffffffff1673ffffffffffffffffffffffffffffffffffffffff16815260200190815260200160002054141561110b5760006000fd5b6000601460000160009054906101000a900473ffffffffffffffffffffffffffffffffffffffff1673ffffffffffffffffffffffffffffffffffffffff1614156111555760006000fd5b601360149054906101000a900460ff1615156111715760006000fd5b6000341415156111815760006000fd5b80600f6000600e60003373ffffffffffffffffffffffffffffffffffffffff1673ffffffffffffffffffffffffffffffffffffffff16815260200190815260200160002054815260200190815260200160002060020160006101000a81548160ff0219169083151502179055505b5b5b5b5b50565b3373ffffffffffffffffffffffffffffffffffffffff16601260009054906101000a900473ffffffffffffffffffffffffffffffffffffffff1673ffffffffffffffffffffffffffffffffffffffff161415156112535760006000fd5b6000341415156112635760006000fd5b80601360006101000a81548173ffffffffffffffffffffffffffffffffffffffff021916908373ffffffffffffffffffffffffffffffffffffffff1602179055505b5b5b50565b600060003373ffffffffffffffffffffffffffffffffffffffff16601260009054906101000a900473ffffffffffffffffffffffffffffffffffffffff1673ffffffffffffffffffffffffffffffffffffffff1614151561130b5760006000fd5b60003414151561131b5760006000fd5b6010549150600190505b818111151561137c5761136e600f60006001815260200190815260200160002060000160009054906101000a900473ffffffffffffffffffffffffffffffffffffffff16612d31565b5b8080600101915050611325565b5b5b5b5050565b6113ae828260006040518059106113975750595b908082528060200260200182016040525b506113b9565b5b5050565b601a5481565b600060006113c561306d565b73ffffffffffffffffffffffffffffffffffffffff163373ffffffffffffffffffffffffffffffffffffffff161415156113ff5760006000fd5b84600060166000836000191660001916815260200190815260200160002090506000816002015411156114325760006000fd5b868660006000601660008560001916600019168152602001908152602001600020915061145e83613381565b90506001811080611470575061271081115b8015611480575060008260020154145b156114e2576201869f601660008660001916600019168152602001908152602001600020600201819055506114dd8260000160009054906101000a900473ffffffffffffffffffffffffffffffffffffffff168360010154613396565b611718565b8a6000601660008360001916600019168152602001908152602001600020905061271061150d610f9a565b6007540281151561151a57fe5b04600554600554600654612710030383600101540281151561153857fe5b041115156116b757601660008e6000191660001916815260200190815260200160002099506115668c613381565b985088601660008f600019166000191681526020019081526020016000206002018190555061160b8a606060405190810160405290816000820160009054906101000a900473ffffffffffffffffffffffffffffffffffffffff1673ffffffffffffffffffffffffffffffffffffffff1673ffffffffffffffffffffffffffffffffffffffff168152602001600182015481526020016002820154815250508a6135d4565b61168b8a606060405190810160405290816000820160009054906101000a900473ffffffffffffffffffffffffffffffffffffffff1673ffffffffffffffffffffffffffffffffffffffff1673ffffffffffffffffffffffffffffffffffffffff168152602001600182015481526020016002820154815250508a6136a4565b8960010154601860008282540192505081905550601b60006101000a81549060ff02191690555b611714565b6201869f6016600084600019166000191681526020019081526020016000206002018190555061170f8160000160009054906101000a900473ffffffffffffffffffffffffffffffffffffffff168260010154613396565b611715565b5b50505b505050505b50505b5050505050565b601360149054906101000a900460ff1681565b600f6020528060005260406000206000915090508060000160009054906101000a900473ffffffffffffffffffffffffffffffffffffffff16908060010154908060020160009054906101000a900460ff16905083565b60006000600060019150600190505b60105481111515611841576117ea600f600084815260200190815260200160002060000160009054906101000a900473ffffffffffffffffffffffffffffffffffffffff166125bf565b611829600f600084815260200190815260200160002060000160009054906101000a900473ffffffffffffffffffffffffffffffffffffffff166125bf565b1015611833578091505b5b80806001019150506117a0565b8192505b505090565b6000601360149054906101000a900460ff1615156118685760006000fd5b3373ffffffffffffffffffffffffffffffffffffffff16601260009054906101000a900473ffffffffffffffffffffffffffffffffffffffff1673ffffffffffffffffffffffffffffffffffffffff161415156118c55760006000fd5b6000341415156118d55760006000fd5b600190505b6010548111151561191957600f600082815260200190815260200160002060020160006101000a81549060ff02191690555b80806001019150506118da565b6040604051908101604052808373ffffffffffffffffffffffffffffffffffffffff16815260200142815250601460008201518160000160006101000a81548173ffffffffffffffffffffffffffffffffffffffff021916908373ffffffffffffffffffffffffffffffffffffffff160217905550602082015181600101559050507ffc136941d6f5a7fa31fea543bdc05be2e77ce86110b5fe83706976590c0d399560405180905060405180910390a15b5b5b5b5050565b600b5481565b600060006000600060006000600060006000600060006119f6610f9a565b9150611a00611d0d565b905081600554600654600754600854601854601a5460195403876017805490509a509a509a509a509a509a509a509a509a505b5050909192939495969798565b3373ffffffffffffffffffffffffffffffffffffffff16601260009054906101000a900473ffffffffffffffffffffffffffffffffffffffff1673ffffffffffffffffffffffffffffffffffffffff16141515611a9d5760006000fd5b601360149054906101000a900460ff161515611ab95760006000fd5b600034141515611ac95760006000fd5b611ad281612d31565b601460006000820160006101000a81549073ffffffffffffffffffffffffffffffffffffffff0219169055600182016000905550505b5b5b5b50565b60148060000160009054906101000a900473ffffffffffffffffffffffffffffffffffffffff16908060010154905082565b600060006000600060009054906101000a900473ffffffffffffffffffffffffffffffffffffffff1673ffffffffffffffffffffffffffffffffffffffff166338cc48316000604051602001526040518163ffffffff167c0100000000000000000000000000000000000000000000000000000000028152600401809050602060405180830381600087803b1515611bd457fe5b6102c65a03f11515611be257fe5b5050506040518051905073ffffffffffffffffffffffffffffffffffffffff16632ef3accc600d546201e848016000604051602001526040518263ffffffff167c01000000000000000000000000000000000000000000000000000000000281526004018080602001838152602001828103825260038152602001807f55524c000000000000000000000000000000000000000000000000000000000081525060200192505050602060405180830381600087803b1515611c9f57fe5b6102c65a03f11515611cad57fe5b505050604051805190509150600554600654612710030361271002600554611cd3610f9a565b6007540202811515611ce157fe5b04905081810192505b505090565b60195481565b600e6020528060005260406000206000915090505481565b600060006009546010541415611d6d57611d25611791565b9050611d66600f600083815260200190815260200160002060000160009054906101000a900473ffffffffffffffffffffffffffffffffffffffff166125bf565b9150611d77565b60009150611d77565b5b5090565b60006000600060009054906101000a900473ffffffffffffffffffffffffffffffffffffffff1673ffffffffffffffffffffffffffffffffffffffff166338cc48316000604051602001526040518163ffffffff167c0100000000000000000000000000000000000000000000000000000000028152600401809050602060405180830381600087803b1515611e0d57fe5b6102c65a03f11515611e1b57fe5b5050506040518051905073ffffffffffffffffffffffffffffffffffffffff16632ef3accc600d546201e848016000604051602001526040518263ffffffff167c01000000000000000000000000000000000000000000000000000000000281526004018080602001838152602001828103825260038152602001807f55524c000000000000000000000000000000000000000000000000000000000081525060200192505050602060405180830381600087803b1515611ed857fe5b6102c65a03f11515611ee657fe5b505050604051805190509050600854810191505b5090565b3373ffffffffffffffffffffffffffffffffffffffff16601260009054906101000a900473ffffffffffffffffffffffffffffffffffffffff1673ffffffffffffffffffffffffffffffffffffffff16141515611f5b5760006000fd5b600034141515611f6b5760006000fd5b80601260006101000a81548173ffffffffffffffffffffffffffffffffffffffff021916908373ffffffffffffffffffffffffffffffffffffffff1602179055505b5b5b50565b60085481565b601360149054906101000a900460ff1615611fd35760006000fd5b6000341415611fe25760006000fd5b6000600e60003373ffffffffffffffffffffffffffffffffffffffff1673ffffffffffffffffffffffffffffffffffffffff1681526020019081526020016000205414156120305760006000fd5b6120386137af565b34600f6000600e60003373ffffffffffffffffffffffffffffffffffffffff1673ffffffffffffffffffffffffffffffffffffffff16815260200190815260200160002054815260200190815260200160002060010160008282540192505081905550346011600082825401925050819055505b5b5b5b565b60055481565b60065481565b60095481565b3373ffffffffffffffffffffffffffffffffffffffff16601260009054906101000a900473ffffffffffffffffffffffffffffffffffffffff1673ffffffffffffffffffffffffffffffffffffffff161415156121205760006000fd5b6000341415156121305760006000fd5b6000601360146101000a81548160ff0219169083151502179055505b5b5b565b60115481565b3373ffffffffffffffffffffffffffffffffffffffff16601260009054906101000a900473ffffffffffffffffffffffffffffffffffffffff1673ffffffffffffffffffffffffffffffffffffffff161415156121b35760006000fd5b806161a88110156121c45760006000fd5b6000341415156121d45760006000fd5b81600d819055505b5b5b505b50565b60185481565b600a5481565b600060178054905090505b90565b6000601154601a54600f6000600e60008773ffffffffffffffffffffffffffffffffffffffff1673ffffffffffffffffffffffffffffffffffffffff168152602001908152602001600020548152602001908152602001600020600101540281151561226557fe5b0490505b919050565b6000600060003373ffffffffffffffffffffffffffffffffffffffff16601260009054906101000a900473ffffffffffffffffffffffffffffffffffffffff1673ffffffffffffffffffffffffffffffffffffffff161415156122d15760006000fd5b6000601460000160009054906101000a900473ffffffffffffffffffffffffffffffffffffffff1673ffffffffffffffffffffffffffffffffffffffff16141561231b5760006000fd5b601360149054906101000a900460ff1615156123375760006000fd5b4262093a8060146001015401111561234f5760006000fd5b60003414151561235f5760006000fd5b3073ffffffffffffffffffffffffffffffffffffffff16319150600190505b601054811115156123f65760011515600f600083815260200190815260200160002060020160009054906101000a900460ff16151514156123e8578280600101935050600f600082815260200190815260200160002060020160006101000a81549060ff02191690555b5b808060010191505061237e565b6064601054600c540281151561240857fe5b04831015156125ae57601460000160009054906101000a900473ffffffffffffffffffffffffffffffffffffffff1673ffffffffffffffffffffffffffffffffffffffff166108fc3073ffffffffffffffffffffffffffffffffffffffff16319081150290604051809050600060405180830381858888f193505050501515612518577f3b66c41562b841e29923849dc45ac54e17eb64f534c62109ba2cc1e977f8ddaf601460000160009054906101000a900473ffffffffffffffffffffffffffffffffffffffff16604051808273ffffffffffffffffffffffffffffffffffffffff1673ffffffffffffffffffffffffffffffffffffffff16815260200191505060405180910390a16125a9565b7f969fa9d259520e00fd561cbd5c523032e2682528b2be25d2380088b332503814601460000160009054906101000a900473ffffffffffffffffffffffffffffffffffffffff1683604051808373ffffffffffffffffffffffffffffffffffffffff1673ffffffffffffffffffffffffffffffffffffffff1681526020018281526020019250505060405180910390a15b6125b4565b60006000fd5b5b5b5b5b5b5b505050565b60006125ca826121fd565b6125d383610fad565b600f6000600e60008773ffffffffffffffffffffffffffffffffffffffff1673ffffffffffffffffffffffffffffffffffffffff16815260200190815260200160002054815260200190815260200160002060010154010390505b919050565b6000601360149054906101000a900460ff16156126505760006000fd5b600034141561265f5760006000fd5b6000600e60003373ffffffffffffffffffffffffffffffffffffffff1673ffffffffffffffffffffffffffffffffffffffff168152602001908152602001600020541415156126ae5760006000fd5b6126b6611d0d565b341115156126c45760006000fd5b6126cc6137af565b6009546010541415612722576126e0611791565b9050612721600f600083815260200190815260200160002060000160009054906101000a900473ffffffffffffffffffffffffffffffffffffffff16612d31565b5b60106000815480929190600101919050555061273f6010546138b5565b5b5b5b5b5b50565b600060006000600060009054906101000a900473ffffffffffffffffffffffffffffffffffffffff1673ffffffffffffffffffffffffffffffffffffffff1614806127bc575060006127ba600060009054906101000a900473ffffffffffffffffffffffffffffffffffffffff1661397d565b145b156127cd576127cb6000613989565b505b600060009054906101000a900473ffffffffffffffffffffffffffffffffffffffff1673ffffffffffffffffffffffffffffffffffffffff166338cc48316000604051602001526040518163ffffffff167c0100000000000000000000000000000000000000000000000000000000028152600401809050602060405180830381600087803b151561285b57fe5b6102c65a03f1151561286957fe5b5050506040518051905073ffffffffffffffffffffffffffffffffffffffff16600160009054906101000a900473ffffffffffffffffffffffffffffffffffffffff1673ffffffffffffffffffffffffffffffffffffffff161415156129b057600060009054906101000a900473ffffffffffffffffffffffffffffffffffffffff1673ffffffffffffffffffffffffffffffffffffffff166338cc48316000604051602001526040518163ffffffff167c0100000000000000000000000000000000000000000000000000000000028152600401809050602060405180830381600087803b151561295757fe5b6102c65a03f1151561296557fe5b50505060405180519050600160006101000a81548173ffffffffffffffffffffffffffffffffffffffff021916908373ffffffffffffffffffffffffffffffffffffffff1602179055505b600160009054906101000a900473ffffffffffffffffffffffffffffffffffffffff1673ffffffffffffffffffffffffffffffffffffffff16632ef3accc87856000604051602001526040518363ffffffff167c01000000000000000000000000000000000000000000000000000000000281526004018080602001838152602001828103825284818151815260200191508051906020019080838360008314612a79575b805182526020831115612a7957602082019150602081019050602083039250612a55565b505050905090810190601f168015612aa55780820380516001836020036101000a031916815260200191505b509350505050602060405180830381600087803b1515612ac157fe5b6102c65a03f11515612acf57fe5b505050604051805190509050823a02670de0b6b3a764000001811115612afb5760006001029150612d27565b600160009054906101000a900473ffffffffffffffffffffffffffffffffffffffff1673ffffffffffffffffffffffffffffffffffffffff166385dee34c826000898989896000604051602001526040518763ffffffff167c010000000000000000000000000000000000000000000000000000000002815260040180868152602001806020018060200180602001858152602001848103845288818151815260200191508051906020019080838360008314612bd7575b805182526020831115612bd757602082019150602081019050602083039250612bb3565b505050905090810190601f168015612c035780820380516001836020036101000a031916815260200191505b50848103835287818151815260200191508051906020019080838360008314612c4b575b805182526020831115612c4b57602082019150602081019050602083039250612c27565b505050905090810190601f168015612c775780820380516001836020036101000a031916815260200191505b50848103825286818151815260200191508051906020019080838360008314612cbf575b805182526020831115612cbf57602082019150602081019050602083039250612c9b565b505050905090810190601f168015612ceb5780820380516001836020036101000a031916815260200191505b50985050505050505050506020604051808303818588803b1515612d0b57fe5b6125ee5a03f11515612d1957fe5b505050506040518051905091505b5b50949350505050565b6000600060006000846000612d45826125bf565b10151561306457612d546137af565b600e60008773ffffffffffffffffffffffffffffffffffffffff1673ffffffffffffffffffffffffffffffffffffffff168152602001908152602001600020549450612d9f866125bf565b9350600f600086815260200190815260200160002060010154601160008282540392505081905550612710600b548502811515612dd857fe5b0492508284039350600f600086815260200190815260200160002060006000820160006101000a81549073ffffffffffffffffffffffffffffffffffffffff021916905560018201600090556002820160006101000a81549060ff02191690555050600e60008773ffffffffffffffffffffffffffffffffffffffff1673ffffffffffffffffffffffffffffffffffffffff168152602001908152602001600020600090556010548514151561301957600f60006010548152602001908152602001600020915084600e60008460000160009054906101000a900473ffffffffffffffffffffffffffffffffffffffff1673ffffffffffffffffffffffffffffffffffffffff1673ffffffffffffffffffffffffffffffffffffffff1681526020019081526020016000208190555081600f60008781526020019081526020016000206000820160009054906101000a900473ffffffffffffffffffffffffffffffffffffffff168160000160006101000a81548173ffffffffffffffffffffffffffffffffffffffff021916908373ffffffffffffffffffffffffffffffffffffffff160217905550600182015481600101556002820160009054906101000a900460ff168160020160006101000a81548160ff021916908315150217905550905050600f6000601054815260200190815260200160002060006000820160006101000a81549073ffffffffffffffffffffffffffffffffffffffff021916905560018201600090556002820160006101000a81549060ff021916905550505b601060008154809291906001900391905055506130368685613396565b613062601360009054906101000a900473ffffffffffffffffffffffffffffffffffffffff1684613396565b5b5b5b505050505050565b60006000600060009054906101000a900473ffffffffffffffffffffffffffffffffffffffff1673ffffffffffffffffffffffffffffffffffffffff1614806130e0575060006130de600060009054906101000a900473ffffffffffffffffffffffffffffffffffffffff1661397d565b145b156130f1576130ef6000613989565b505b600060009054906101000a900473ffffffffffffffffffffffffffffffffffffffff1673ffffffffffffffffffffffffffffffffffffffff166338cc48316000604051602001526040518163ffffffff167c0100000000000000000000000000000000000000000000000000000000028152600401809050602060405180830381600087803b151561317f57fe5b6102c65a03f1151561318d57fe5b5050506040518051905073ffffffffffffffffffffffffffffffffffffffff16600160009054906101000a900473ffffffffffffffffffffffffffffffffffffffff1673ffffffffffffffffffffffffffffffffffffffff161415156132d457600060009054906101000a900473ffffffffffffffffffffffffffffffffffffffff1673ffffffffffffffffffffffffffffffffffffffff166338cc48316000604051602001526040518163ffffffff167c0100000000000000000000000000000000000000000000000000000000028152600401809050602060405180830381600087803b151561327b57fe5b6102c65a03f1151561328957fe5b50505060405180519050600160006101000a81548173ffffffffffffffffffffffffffffffffffffffff021916908373ffffffffffffffffffffffffffffffffffffffff1602179055505b600160009054906101000a900473ffffffffffffffffffffffffffffffffffffffff1673ffffffffffffffffffffffffffffffffffffffff1663c281d19e6000604051602001526040518163ffffffff167c0100000000000000000000000000000000000000000000000000000000028152600401809050602060405180830381600087803b151561336257fe5b6102c65a03f1151561337057fe5b5050506040518051905090505b5b90565b600061338e826000613e26565b90505b919050565b803073ffffffffffffffffffffffffffffffffffffffff163110156133e9577f9bc0f7b8676ac8a3d913fc962a472bc40103acaa27e5477c1eadfbb7d4897a0460405180905060405180910390a16135d0565b8173ffffffffffffffffffffffffffffffffffffffff16600d5482604051809050600060405180830381858888f1935050505015156135cf577f3d14263aec0db87097e504ee7aca5316e879b2cc7f3b29f9c62d40e9bae04cee8282604051808373ffffffffffffffffffffffffffffffffffffffff1673ffffffffffffffffffffffffffffffffffffffff1681526020018281526020019250505060405180910390a1601360009054906101000a900473ffffffffffffffffffffffffffffffffffffffff1673ffffffffffffffffffffffffffffffffffffffff168273ffffffffffffffffffffffffffffffffffffffff161415156135ce57601360009054906101000a900473ffffffffffffffffffffffffffffffffffffffff1673ffffffffffffffffffffffffffffffffffffffff16600d5482604051809050600060405180830381858888f1935050505015156135cd577f3d14263aec0db87097e504ee7aca5316e879b2cc7f3b29f9c62d40e9bae04cee601360009054906101000a900473ffffffffffffffffffffffffffffffffffffffff1682604051808373ffffffffffffffffffffffffffffffffffffffff1673ffffffffffffffffffffffffffffffffffffffff1681526020018281526020019250505060405180910390a15b5b5b5b5050565b60008160055460018203101561369d57600554600654612710038560200151028115156135fd57fe5b0491507f8f25eec129b997ba51175c8f2583cafbfc0c076ef19e2c455869730f969ec44d84600001518484604051808473ffffffffffffffffffffffffffffffffffffffff1673ffffffffffffffffffffffffffffffffffffffff168152602001838152602001828152602001935050505060405180910390a1613685846000015183613396565b83602001518203601a600082825401925050819055505b5b5b50505050565b600081600554600182031015156137a8577fcb9c7189736051e86837ee4847c751bad47c86cb506933875ff8fabf9eeda008846000015184604051808373ffffffffffffffffffffffffffffffffffffffff1673ffffffffffffffffffffffffffffffffffffffff1681526020018281526020019250505060405180910390a161373384600001516001613396565b612710600a546127100360018660200151030281151561374f57fe5b04601960008282540192505081905550612710600a5460018660200151030281151561377757fe5b0491506137a6601360009054906101000a900473ffffffffffffffffffffffffffffffffffffffff1683613396565b5b5b5b50505050565b60006000600060006000601b60009054906101000a900460ff1615156138ad57600193505b6010548411151561387d57600f600085815260200190815260200160002060000160009054906101000a900473ffffffffffffffffffffffffffffffffffffffff16925061382183610fad565b915061382c836121fd565b9050808203600f600086815260200190815260200160002060010160008282540192505081905550600f600085815260200190815260200160002060010154850194505b83806001019450506137d4565b601960009055601a60009055846011819055506001601b60006101000a81548160ff0219169083151502179055505b5b5b5050505050565b80600e60003373ffffffffffffffffffffffffffffffffffffffff1673ffffffffffffffffffffffffffffffffffffffff1681526020019081526020016000208190555033600f600083815260200190815260200160002060000160006101000a81548173ffffffffffffffffffffffffffffffffffffffff021916908373ffffffffffffffffffffffffffffffffffffffff16021790555034600f600083815260200190815260200160002060010181905550346011600082825401925050819055505b50565b6000813b90505b919050565b600060006139aa731d3b2638a7cc9f2cb3d298a3da7a90b67e5506ed61397d565b1115613a4d57731d3b2638a7cc9f2cb3d298a3da7a90b67e5506ed600060006101000a81548173ffffffffffffffffffffffffffffffffffffffff021916908373ffffffffffffffffffffffffffffffffffffffff160217905550613a44604060405190810160405280600b81526020017f6574685f6d61696e6e6574000000000000000000000000000000000000000000815250614124565b60019050613e21565b6000613a6c73c03a2615d5efaf5f49f60b7bb6583eaec212fdf161397d565b1115613b0f5773c03a2615d5efaf5f49f60b7bb6583eaec212fdf1600060006101000a81548173ffffffffffffffffffffffffffffffffffffffff021916908373ffffffffffffffffffffffffffffffffffffffff160217905550613b06604060405190810160405280600c81526020017f6574685f726f707374656e330000000000000000000000000000000000000000815250614124565b60019050613e21565b6000613b2e73b7a07bcf2ba2f2703b24c0691b5278999c59ac7e61397d565b1115613bd15773b7a07bcf2ba2f2703b24c0691b5278999c59ac7e600060006101000a81548173ffffffffffffffffffffffffffffffffffffffff021916908373ffffffffffffffffffffffffffffffffffffffff160217905550613bc8604060405190810160405280600981526020017f6574685f6b6f76616e0000000000000000000000000000000000000000000000815250614124565b60019050613e21565b6000613bf073146500cfd35b22e4a392fe0adc06de1a1368ed4861397d565b1115613c935773146500cfd35b22e4a392fe0adc06de1a1368ed48600060006101000a81548173ffffffffffffffffffffffffffffffffffffffff021916908373ffffffffffffffffffffffffffffffffffffffff160217905550613c8a604060405190810160405280600b81526020017f6574685f72696e6b656279000000000000000000000000000000000000000000815250614124565b60019050613e21565b6000613cb2736f485c8bf6fc43ea212e93bbf8ce046c7f1cb47561397d565b1115613d1657736f485c8bf6fc43ea212e93bbf8ce046c7f1cb475600060006101000a81548173ffffffffffffffffffffffffffffffffffffffff021916908373ffffffffffffffffffffffffffffffffffffffff16021790555060019050613e21565b6000613d357320e12a1f859b3feae5fb2a0a32c18f5a65555bbf61397d565b1115613d99577320e12a1f859b3feae5fb2a0a32c18f5a65555bbf600060006101000a81548173ffffffffffffffffffffffffffffffffffffffff021916908373ffffffffffffffffffffffffffffffffffffffff16021790555060019050613e21565b6000613db87351efaf4c8b3c9afbd5ab9f4bbc82784ab6ef8faa61397d565b1115613e1c577351efaf4c8b3c9afbd5ab9f4bbc82784ab6ef8faa600060006101000a81548173ffffffffffffffffffffffffffffffffffffffff021916908373ffffffffffffffffffffffffffffffffffffffff16021790555060019050613e21565b600090505b919050565b6000613e3061416b565b6000600060008693506000925060009150600090505b83518110156141045760307f0100000000000000000000000000000000000000000000000000000000000000028482815181101515613e8157fe5b9060200101517f010000000000000000000000000000000000000000000000000000000000000090047f0100000000000000000000000000000000000000000000000000000000000000027effffffffffffffffffffffffffffffffffffffffffffffffffffffffffffff191610158015613f99575060397f0100000000000000000000000000000000000000000000000000000000000000028482815181101515613f2957fe5b9060200101517f010000000000000000000000000000000000000000000000000000000000000090047f0100000000000000000000000000000000000000000000000000000000000000027effffffffffffffffffffffffffffffffffffffffffffffffffffffffffffff191611155b1561404b578115613fbd576000861415613fb257614104565b8580600190039650505b5b600a8302925060308482815181101515613fd357fe5b9060200101517f010000000000000000000000000000000000000000000000000000000000000090047f0100000000000000000000000000000000000000000000000000000000000000027f0100000000000000000000000000000000000000000000000000000000000000900403830192506140f6565b602e7f010000000000000000000000000000000000000000000000000000000000000002848281518110151561407d57fe5b9060200101517f010000000000000000000000000000000000000000000000000000000000000090047f0100000000000000000000000000000000000000000000000000000000000000027effffffffffffffffffffffffffffffffffffffffffffffffffffffffffffff191614156140f557600191505b5b5b8080600101915050613e46565b60008611156141165785600a0a830292505b8294505b5050505092915050565b806002908051906020019061413a92919061417f565b505b50565b8154818355818115116141665781836000526020600020918201910161416591906141ff565b5b505050565b602060405190810160405280600081525090565b828054600181600116156101000203166002900490600052602060002090601f016020900481019282601f106141c057805160ff19168380011785556141ee565b828001600101855582156141ee579182015b828111156141ed5782518255916020019190600101906141d2565b5b5090506141fb9190614224565b5090565b61422191905b8082111561421d576000816000905550600101614205565b5090565b90565b61424691905b8082111561424257600081600090555060010161422a565b5090565b90565b6000600060009054906101000a900473ffffffffffffffffffffffffffffffffffffffff1673ffffffffffffffffffffffffffffffffffffffff1614806142ba575060006142b8600060009054906101000a900473ffffffffffffffffffffffffffffffffffffffff1661397d565b145b156142cb576142c96000613989565b505b600060009054906101000a900473ffffffffffffffffffffffffffffffffffffffff1673ffffffffffffffffffffffffffffffffffffffff166338cc48316000604051602001526040518163ffffffff167c0100000000000000000000000000000000000000000000000000000000028152600401809050602060405180830381600087803b151561435957fe5b6102c65a03f1151561436757fe5b5050506040518051905073ffffffffffffffffffffffffffffffffffffffff16600160009054906101000a900473ffffffffffffffffffffffffffffffffffffffff1673ffffffffffffffffffffffffffffffffffffffff161415156144ae57600060009054906101000a900473ffffffffffffffffffffffffffffffffffffffff1673ffffffffffffffffffffffffffffffffffffffff166338cc48316000604051602001526040518163ffffffff167c0100000000000000000000000000000000000000000000000000000000028152600401809050602060405180830381600087803b151561445557fe5b6102c65a03f1151561446357fe5b50505060405180519050600160006101000a81548173ffffffffffffffffffffffffffffffffffffffff021916908373ffffffffffffffffffffffffffffffffffffffff1602179055505b600160009054906101000a900473ffffffffffffffffffffffffffffffffffffffff1673ffffffffffffffffffffffffffffffffffffffff1663688dcfd7826040518263ffffffff167c010000000000000000000000000000000000000000000000000000000002815260040180827effffffffffffffffffffffffffffffffffffffffffffffffffffffffffffff19167effffffffffffffffffffffffffffffffffffffffffffffffffffffffffffff19168152602001915050600060405180830381600087803b151561457f57fe5b6102c65a03f1151561458d57fe5b5050505b5b505600424258315043513931333438333977547a31304f57785843615a61476b39327946365445533878412b38494337784e426c4a7135414c3075573372657637496f41704135444d466d43664b47696b6a6e4e624e676c4b4b76776a454e5950423854424a4e397444676463594e7864576e735941524b4d716d6a724a4b596242416977732b55553648724a58555769724f2b644253534a626d6a49672b39766d426a5371384b766569427a53476d75516875372f6853673572537353502f722b4d68522f51354543724f48692b436b502f7164535554412f516843436a647a46752b3774334873374e553334612b6c374a6476446c764438686f4e78794b6f6f4d44594e625541382f65466d50763264353338464e364b4a51702b524b723477345674414d4864656a724c4d3da165627a7a7230582029c8700dc8c728612ba87f6ff90810b45794ac5a9d935a57318e317ddcf1eca90029",
  "source": "pragma solidity ^0.4.11;\nimport \"./usingOraclize.sol\";\n\ncontract Dice is usingOraclize {\n    uint256 public pwin = 5000; //probability of winning (10000 = 100%)\n    uint256 public edge = 200; //edge percentage (10000 = 100%)\n    uint256 public maxWin = 100; //max win (before edge is taken) as percentage of bankroll (10000 = 100%)\n    uint256 public minBet = 1 finney;\n    uint256 public maxInvestors = 5; //maximum number of investors\n    uint256 public houseEdge = 50; //edge percentage (10000 = 100%)\n    uint256 public divestFee = 50; //divest fee percentage (10000 = 100%)\n    uint256 public emergencyWithdrawalRatio = 90; //ratio percentage (100 = 100%)\n\n    uint256 safeGas = 25000;\n    uint256 constant ORACLIZE_GAS_LIMIT = 125000;\n    uint256 constant INVALID_BET_MARKER = 99999;\n    uint256 constant EMERGENCY_TIMEOUT = 7 days;\n\n    struct Investor {\n        address investorAddress;\n        uint256 amountInvested;\n        bool votedForEmergencyWithdrawal;\n    }\n\n    struct Bet {\n        address playerAddress;\n        uint256 amountBetted;\n        uint256 numberRolled;\n    }\n\n    struct WithdrawalProposal {\n        address toAddress;\n        uint256 atTime;\n    }\n\n    //Starting at 1\n    mapping(address => uint256) public investorIDs;\n    mapping(uint256 => Investor) public investors;\n    uint256 public numInvestors = 0;\n\n    uint256 public invested = 0;\n\n    address owner;\n    address houseAddress;\n    bool public isStopped;\n\n    WithdrawalProposal public proposedWithdrawal;\n\n    mapping(bytes32 => Bet) bets;\n    bytes32[] betsKeys;\n\n    uint256 public amountWagered = 0;\n    uint256 public investorsProfit = 0;\n    uint256 public investorsLoses = 0;\n    bool profitDistributed;\n\n    event BetWon(\n        address playerAddress,\n        uint256 numberRolled,\n        uint256 amountWon\n    );\n    event BetLost(address playerAddress, uint256 numberRolled);\n    event EmergencyWithdrawalProposed();\n    event EmergencyWithdrawalFailed(address withdrawalAddress);\n    event EmergencyWithdrawalSucceeded(\n        address withdrawalAddress,\n        uint256 amountWithdrawn\n    );\n    event FailedSend(address receiver, uint256 amount);\n    event ValueIsTooBig();\n\n    function Dice(\n        uint256 pwinInitial,\n        uint256 edgeInitial,\n        uint256 maxWinInitial,\n        uint256 minBetInitial,\n        uint256 maxInvestorsInitial,\n        uint256 houseEdgeInitial,\n        uint256 divestFeeInitial,\n        uint256 emergencyWithdrawalRatioInitial\n    ) {\n        OAR = OraclizeAddrResolverI(0x6f485C8BF6fc43eA212E93BBF8ce046C7f1cb475);\n        oraclize_setProof(proofType_TLSNotary | proofStorage_IPFS);\n\n        pwin = pwinInitial;\n        edge = edgeInitial;\n        maxWin = maxWinInitial;\n        minBet = minBetInitial;\n        maxInvestors = maxInvestorsInitial;\n        houseEdge = houseEdgeInitial;\n        divestFee = divestFeeInitial;\n        emergencyWithdrawalRatio = emergencyWithdrawalRatioInitial;\n        owner = msg.sender;\n        houseAddress = msg.sender;\n    }\n\n    //SECTION I: MODIFIERS AND HELPER FUNCTIONS\n\n    //MODIFIERS\n\n    modifier onlyIfNotStopped {\n        if (isStopped) throw;\n        _;\n    }\n\n    modifier onlyIfStopped {\n        if (!isStopped) throw;\n        _;\n    }\n\n    modifier onlyInvestors {\n        if (investorIDs[msg.sender] == 0) throw;\n        _;\n    }\n\n    modifier onlyNotInvestors {\n        if (investorIDs[msg.sender] != 0) throw;\n        _;\n    }\n\n    modifier onlyOwner {\n        if (owner != msg.sender) throw;\n        _;\n    }\n\n    modifier onlyOraclize {\n        if (msg.sender != oraclize_cbAddress()) throw;\n        _;\n    }\n\n    modifier onlyMoreThanMinInvestment {\n        if (msg.value <= getMinInvestment()) throw;\n        _;\n    }\n\n    modifier onlyMoreThanZero {\n        if (msg.value == 0) throw;\n        _;\n    }\n\n    modifier onlyIfBetSizeIsStillCorrect(bytes32 myid) {\n        Bet thisBet = bets[myid];\n        if (\n            (((thisBet.amountBetted * ((10000 - edge) - pwin)) / pwin) <=\n                (maxWin * getBankroll()) / 10000)\n        ) {\n            _;\n        } else {\n            bets[myid].numberRolled = INVALID_BET_MARKER;\n            safeSend(thisBet.playerAddress, thisBet.amountBetted);\n            return;\n        }\n    }\n\n    modifier onlyIfValidRoll(bytes32 myid, string result) {\n        Bet thisBet = bets[myid];\n        uint256 numberRolled = parseInt(result);\n        if (\n            (numberRolled < 1 || numberRolled > 10000) &&\n            thisBet.numberRolled == 0\n        ) {\n            bets[myid].numberRolled = INVALID_BET_MARKER;\n            safeSend(thisBet.playerAddress, thisBet.amountBetted);\n            return;\n        }\n        _;\n    }\n\n    modifier onlyIfInvestorBalanceIsPositive(address currentInvestor) {\n        if (getBalance(currentInvestor) >= 0) {\n            _;\n        }\n    }\n\n    modifier onlyWinningBets(uint256 numberRolled) {\n        if (numberRolled - 1 < pwin) {\n            _;\n        }\n    }\n\n    modifier onlyLosingBets(uint256 numberRolled) {\n        if (numberRolled - 1 >= pwin) {\n            _;\n        }\n    }\n\n    modifier onlyAfterProposed {\n        if (proposedWithdrawal.toAddress == 0) throw;\n        _;\n    }\n\n    modifier rejectValue {\n        if (msg.value != 0) throw;\n        _;\n    }\n\n    modifier onlyIfProfitNotDistributed {\n        if (!profitDistributed) {\n            _;\n        }\n    }\n\n    modifier onlyIfValidGas(uint256 newGasLimit) {\n        if (newGasLimit < 25000) throw;\n        _;\n    }\n\n    modifier onlyIfNotProcessed(bytes32 myid) {\n        Bet thisBet = bets[myid];\n        if (thisBet.numberRolled > 0) throw;\n        _;\n    }\n\n    modifier onlyIfEmergencyTimeOutHasPassed {\n        if (proposedWithdrawal.atTime + EMERGENCY_TIMEOUT > now) throw;\n        _;\n    }\n\n    //CONSTANT HELPER FUNCTIONS\n\n    function getBankroll() constant returns (uint256) {\n        return invested + investorsProfit - investorsLoses;\n    }\n\n    function getMinInvestment() constant returns (uint256) {\n        if (numInvestors == maxInvestors) {\n            uint256 investorID = searchSmallestInvestor();\n            return getBalance(investors[investorID].investorAddress);\n        } else {\n            return 0;\n        }\n    }\n\n    function getStatus()\n        constant\n        returns (\n            uint256,\n            uint256,\n            uint256,\n            uint256,\n            uint256,\n            uint256,\n            uint256,\n            uint256,\n            uint256\n        )\n    {\n        uint256 bankroll = getBankroll();\n\n        uint256 minInvestment = getMinInvestment();\n\n        return (\n            bankroll,\n            pwin,\n            edge,\n            maxWin,\n            minBet,\n            amountWagered,\n            (investorsProfit - investorsLoses),\n            minInvestment,\n            betsKeys.length\n        );\n    }\n\n    function getBet(uint256 id)\n        constant\n        returns (\n            address,\n            uint256,\n            uint256\n        )\n    {\n        if (id < betsKeys.length) {\n            bytes32 betKey = betsKeys[id];\n            return (\n                bets[betKey].playerAddress,\n                bets[betKey].amountBetted,\n                bets[betKey].numberRolled\n            );\n        }\n    }\n\n    function numBets() constant returns (uint256) {\n        return betsKeys.length;\n    }\n\n    function getMinBetAmount() constant returns (uint256) {\n        uint256 oraclizeFee =\n            OraclizeI(OAR.getAddress()).getPrice(\n                \"URL\",\n                ORACLIZE_GAS_LIMIT + safeGas\n            );\n        return oraclizeFee + minBet;\n    }\n\n    function getMaxBetAmount() constant returns (uint256) {\n        uint256 oraclizeFee =\n            OraclizeI(OAR.getAddress()).getPrice(\n                \"URL\",\n                ORACLIZE_GAS_LIMIT + safeGas\n            );\n        uint256 betValue =\n            ((maxWin * getBankroll()) * pwin) / (10000 * (10000 - edge - pwin));\n        return betValue + oraclizeFee;\n    }\n\n    function getLosesShare(address currentInvestor) constant returns (uint256) {\n        return\n            (investors[investorIDs[currentInvestor]].amountInvested *\n                (investorsLoses)) / invested;\n    }\n\n    function getProfitShare(address currentInvestor)\n        constant\n        returns (uint256)\n    {\n        return\n            (investors[investorIDs[currentInvestor]].amountInvested *\n                (investorsProfit)) / invested;\n    }\n\n    function getBalance(address currentInvestor) constant returns (uint256) {\n        return\n            investors[investorIDs[currentInvestor]].amountInvested +\n            getProfitShare(currentInvestor) -\n            getLosesShare(currentInvestor);\n    }\n\n    function searchSmallestInvestor() constant returns (uint256) {\n        uint256 investorID = 1;\n        for (uint256 i = 1; i <= numInvestors; i++) {\n            if (\n                getBalance(investors[i].investorAddress) <\n                getBalance(investors[investorID].investorAddress)\n            ) {\n                investorID = i;\n            }\n        }\n\n        return investorID;\n    }\n\n    // PRIVATE HELPERS FUNCTION\n\n    function safeSend(address addr, uint256 value) private {\n        if (this.balance < value) {\n            ValueIsTooBig();\n            return;\n        }\n\n        if (!(addr.call.gas(safeGas).value(value)())) {\n            FailedSend(addr, value);\n            if (addr != houseAddress) {\n                //Forward to house address all change\n                if (!(houseAddress.call.gas(safeGas).value(value)()))\n                    FailedSend(houseAddress, value);\n            }\n        }\n    }\n\n    function addInvestorAtID(uint256 id) private {\n        investorIDs[msg.sender] = id;\n        investors[id].investorAddress = msg.sender;\n        investors[id].amountInvested = msg.value;\n        invested += msg.value;\n    }\n\n    function profitDistribution() private onlyIfProfitNotDistributed {\n        uint256 copyInvested;\n\n        for (uint256 i = 1; i <= numInvestors; i++) {\n            address currentInvestor = investors[i].investorAddress;\n            uint256 profitOfInvestor = getProfitShare(currentInvestor);\n            uint256 losesOfInvestor = getLosesShare(currentInvestor);\n            investors[i].amountInvested += profitOfInvestor - losesOfInvestor;\n            copyInvested += investors[i].amountInvested;\n        }\n\n        delete investorsProfit;\n        delete investorsLoses;\n        invested = copyInvested;\n\n        profitDistributed = true;\n    }\n\n    // SECTION II: BET & BET PROCESSING\n\n    function() {\n        bet();\n    }\n\n    function bet() onlyIfNotStopped onlyMoreThanZero {\n        uint256 oraclizeFee =\n            OraclizeI(OAR.getAddress()).getPrice(\n                \"URL\",\n                ORACLIZE_GAS_LIMIT + safeGas\n            );\n        uint256 betValue = msg.value - oraclizeFee;\n        if (\n            (((betValue * ((10000 - edge) - pwin)) / pwin) <=\n                (maxWin * getBankroll()) / 10000) && (betValue >= minBet)\n        ) {\n            // encrypted arg: '\\n{\"jsonrpc\":2.0,\"method\":\"generateSignedIntegers\",\"params\":{\"apiKey\":\"YOUR_API_KEY\",\"n\":1,\"min\":1,\"max\":10000},\"id\":1}'\n            bytes32 myid =\n                oraclize_query(\n                    \"URL\",\n                    \"json(https://api.random.org/json-rpc/1/invoke).result.random.data.0\",\n                    \"BBX1PCQ9134839wTz10OWxXCaZaGk92yF6TES8xA+8IC7xNBlJq5AL0uW3rev7IoApA5DMFmCfKGikjnNbNglKKvwjENYPB8TBJN9tDgdcYNxdWnsYARKMqmjrJKYbBAiws+UU6HrJXUWirO+dBSSJbmjIg+9vmBjSq8KveiBzSGmuQhu7/hSg5rSsSP/r+MhR/Q5ECrOHi+CkP/qdSUTA/QhCCjdzFu+7t3Hs7NU34a+l7JdvDlvD8hoNxyKooMDYNbUA8/eFmPv2d538FN6KJQp+RKr4w4VtAMHdejrLM=\",\n                    ORACLIZE_GAS_LIMIT + safeGas\n                );\n            bets[myid] = Bet(msg.sender, betValue, 0);\n            betsKeys.push(myid);\n        } else {\n            throw;\n        }\n    }\n\n    function __callback(\n        bytes32 myid,\n        string result,\n        bytes proof\n    )\n        onlyOraclize\n        onlyIfNotProcessed(myid)\n        onlyIfValidRoll(myid, result)\n        onlyIfBetSizeIsStillCorrect(myid)\n    {\n        Bet thisBet = bets[myid];\n        uint256 numberRolled = parseInt(result);\n        bets[myid].numberRolled = numberRolled;\n        isWinningBet(thisBet, numberRolled);\n        isLosingBet(thisBet, numberRolled);\n        amountWagered += thisBet.amountBetted;\n        delete profitDistributed;\n    }\n\n    function isWinningBet(Bet thisBet, uint256 numberRolled)\n        private\n        onlyWinningBets(numberRolled)\n    {\n        uint256 winAmount = (thisBet.amountBetted * (10000 - edge)) / pwin;\n        BetWon(thisBet.playerAddress, numberRolled, winAmount);\n        safeSend(thisBet.playerAddress, winAmount);\n        investorsLoses += (winAmount - thisBet.amountBetted);\n    }\n\n    function isLosingBet(Bet thisBet, uint256 numberRolled)\n        private\n        onlyLosingBets(numberRolled)\n    {\n        BetLost(thisBet.playerAddress, numberRolled);\n        safeSend(thisBet.playerAddress, 1);\n        investorsProfit +=\n            ((thisBet.amountBetted - 1) * (10000 - houseEdge)) /\n            10000;\n        uint256 houseProfit =\n            ((thisBet.amountBetted - 1) * (houseEdge)) / 10000;\n        safeSend(houseAddress, houseProfit);\n    }\n\n    //SECTION III: INVEST & DIVEST\n\n    function increaseInvestment()\n        onlyIfNotStopped\n        onlyMoreThanZero\n        onlyInvestors\n    {\n        profitDistribution();\n        investors[investorIDs[msg.sender]].amountInvested += msg.value;\n        invested += msg.value;\n    }\n\n    function newInvestor()\n        payable\n        onlyIfNotStopped\n        onlyMoreThanZero\n        onlyNotInvestors\n        onlyMoreThanMinInvestment\n    {\n        profitDistribution();\n\n        if (numInvestors == maxInvestors) {\n            uint256 smallestInvestorID = searchSmallestInvestor();\n            divest(investors[smallestInvestorID].investorAddress);\n        }\n\n        numInvestors++;\n        addInvestorAtID(numInvestors);\n    }\n\n    function divest() onlyInvestors rejectValue {\n        divest(msg.sender);\n    }\n\n    function divest(address currentInvestor)\n        private\n        onlyIfInvestorBalanceIsPositive(currentInvestor)\n    {\n        profitDistribution();\n        uint256 currentID = investorIDs[currentInvestor];\n        uint256 amountToReturn = getBalance(currentInvestor);\n        invested -= investors[currentID].amountInvested;\n        uint256 divestFeeAmount = (amountToReturn * divestFee) / 10000;\n        amountToReturn -= divestFeeAmount;\n\n        delete investors[currentID];\n        delete investorIDs[currentInvestor];\n        //Reorder investors\n\n        if (currentID != numInvestors) {\n            // Get last investor\n            Investor lastInvestor = investors[numInvestors];\n            //Set last investor ID to investorID of divesting account\n            investorIDs[lastInvestor.investorAddress] = currentID;\n            //Copy investor at the new position in the mapping\n            investors[currentID] = lastInvestor;\n            //Delete old position in the mappping\n            delete investors[numInvestors];\n        }\n\n        numInvestors--;\n        safeSend(currentInvestor, amountToReturn);\n        safeSend(houseAddress, divestFeeAmount);\n    }\n\n    function forceDivestOfAllInvestors() onlyOwner rejectValue {\n        uint256 copyNumInvestors = numInvestors;\n        for (uint256 i = 1; i <= copyNumInvestors; i++) {\n            divest(investors[1].investorAddress);\n        }\n    }\n\n    /*\n    The owner can use this function to force the exit of an investor from the\n    contract during an emergency withdrawal in the following situations:\n        - Unresponsive investor\n        - Investor demanding to be paid in other to vote, the facto-blackmailing\n        other investors\n    */\n    function forceDivestOfOneInvestor(address currentInvestor)\n        onlyOwner\n        onlyIfStopped\n        rejectValue\n    {\n        divest(currentInvestor);\n        //Resets emergency withdrawal proposal. Investors must vote again\n        delete proposedWithdrawal;\n    }\n\n    //SECTION IV: CONTRACT MANAGEMENT\n\n    function stopContract() onlyOwner rejectValue {\n        isStopped = true;\n    }\n\n    function resumeContract() onlyOwner rejectValue {\n        isStopped = false;\n    }\n\n    function changeHouseAddress(address newHouse) onlyOwner rejectValue {\n        houseAddress = newHouse;\n    }\n\n    function changeOwnerAddress(address newOwner) onlyOwner rejectValue {\n        owner = newOwner;\n    }\n\n    function changeGasLimitOfSafeSend(uint256 newGasLimit)\n        onlyOwner\n        onlyIfValidGas(newGasLimit)\n        rejectValue\n    {\n        safeGas = newGasLimit;\n    }\n\n    //SECTION V: EMERGENCY WITHDRAWAL\n\n    function voteEmergencyWithdrawal(bool vote)\n        onlyInvestors\n        onlyAfterProposed\n        onlyIfStopped\n        rejectValue\n    {\n        investors[investorIDs[msg.sender]].votedForEmergencyWithdrawal = vote;\n    }\n\n    function proposeEmergencyWithdrawal(address withdrawalAddress)\n        onlyIfStopped\n        onlyOwner\n        rejectValue\n    {\n        //Resets previous votes\n        for (uint256 i = 1; i <= numInvestors; i++) {\n            delete investors[i].votedForEmergencyWithdrawal;\n        }\n\n        proposedWithdrawal = WithdrawalProposal(withdrawalAddress, now);\n        EmergencyWithdrawalProposed();\n    }\n\n    function executeEmergencyWithdrawal()\n        onlyOwner\n        onlyAfterProposed\n        onlyIfStopped\n        onlyIfEmergencyTimeOutHasPassed\n        rejectValue\n    {\n        uint256 numOfVotesInFavour;\n        uint256 amountToWithdrawal = this.balance;\n\n        for (uint256 i = 1; i <= numInvestors; i++) {\n            if (investors[i].votedForEmergencyWithdrawal == true) {\n                numOfVotesInFavour++;\n                delete investors[i].votedForEmergencyWithdrawal;\n            }\n        }\n\n        if (\n            numOfVotesInFavour >=\n            (emergencyWithdrawalRatio * numInvestors) / 100\n        ) {\n            if (!proposedWithdrawal.toAddress.send(this.balance)) {\n                EmergencyWithdrawalFailed(proposedWithdrawal.toAddress);\n            } else {\n                EmergencyWithdrawalSucceeded(\n                    proposedWithdrawal.toAddress,\n                    amountToWithdrawal\n                );\n            }\n        } else {\n            throw;\n        }\n    }\n}\n",
  "sourcePath": "/Users/dieug_/Code/Solidity/vDice/contracts/Dice.sol",
  "compiler": {
    "name": "solc",
    "version": "0.4.11+commit.68ef5810.Emscripten.clang"
  },
  "schemaVersion": "3.4.1",
  "updatedAt": "2021-06-14T18:41:35.594Z",
  "networkType": "ethereum",
  "devdoc": {
    "methods": {}
  },
  "userdoc": {
    "methods": {}
  }
}